:100000000EC01DC06AC01BC01AC019C018C017C0DE
:1000100016C015C014C013C012C011C010C01124E6
:100020001FBECFE5D2E0DEBFCDBF20E0A0E6B0E04E
:1000300001C01D92A236B207E1F786D08BC0E0CF97
:1000400087B3836087BB8AB583608ABD83B78160CD
:1000500083BF0895823079F028F481110AC08CE7BB
:1000600089BD02C0833049F083B7887F816083BF38
:1000700008958EE3F5CF8FE1F3CF8FE0F1CF80913C
:10008000600090E0019683709927809360008AB5A4
:100090008F7A8ABD809160008330B1F080916000DA
:1000A000882321F080916000823019F48AB5806441
:1000B0008ABD80916000813021F0809160008230A3
:1000C00019F48AB580618ABD0895BA98C29A8BB72F
:1000D00080628BBFAA9A789408951F920F920FB6F0
:1000E0000F9211242F933F934F935F936F937F93BE
:1000F0008F939F93AF93BF93EF93FF932FE788E383
:1001000091E0215080409040E1F700C00000B2999A
:100110000AC080916000833011F410926100AFDF5B
:100120008091610097DFFF91EF91BF91AF919F9117
:100130008F917F916F915F914F913F912F910F9090
:100140000FBE0F901F9018957BDF8091610082DFBA
:08015000BCDFFFCFF894FFCFE4
:00000001FF
