:100000000EC028C04EC026C025C024C023C022C0B8
:1000100021C020C01FC01EC01DC01CC01BC0112499
:100020001FBECFE5D2E0DEBFCDBF10E0A0E6B0E05E
:10003000E4EEF7E002C005900D92A038B107D9F7C1
:1000400020E0A0E8B0E001C01D92A639B207E1F7B8
:1000500098D2B8C3D5CF80E487B983E886B987B38F
:10006000876087BBBB98C39A8BB780628BBFAB9A04
:1000700078940895C29827E030E090E0C198AC01F0
:10008000022E02C0559547950A94E2F740FF07C03B
:10009000C09AC19A2150310988F7C29A0895C09830
:1000A000F8CF0F920FB60F921F9211242F935F93E8
:1000B0006F937F938F939F93AF93BF93B39914C024
:1000C0002FE788E391E0215080409040E1F700C0A5
:1000D0000000B39909C08091800090E001966DE026
:1000E00070E07AD280938000BF91AF919F918F9101
:1000F0007F916F915F912F911F900F900FBE0F9086
:100100001895369A3699FECF84B195B19695879514
:100110009695879508956091810070918200209155
:10012000830030E0F901EA57FF4F40818083860F5A
:10013000972F911D841B91099093820080938100D9
:100140002F5F3F4F2F703327209383000895CF9365
:10015000DF93D7DFE0DF209181003091820084E0DF
:10016000369527958A95E1F7E22FE695E695E6958F
:1001700088E090E08E1B91094FEF50E0BA0102C079
:10018000759567958A95E2F7862F90918000933058
:1001900061F0943061F0913029F4842F01C0880F10
:1001A000EA95EAF7DF91CF9165CF8095FBCF229555
:1001B0002F702F5F44E050E080E0C7E0D0E061E0C6
:1001C00070E034E0FE01E41BF50BDB0102C0AA0F76
:1001D000BB1FEA95E2F7FD01DB01042E01C0AA0F67
:1001E0000A94EAF78A2B8E2B41505109932F941BC6
:1001F000921740F3D7CFCF93C091850081E00C2EAA
:1002000001C0880F0A94EAF735DF90916200C90FA8
:10021000C0938500CC2311F0C73019F491959093C9
:1002200062002FEF80E792E0215080409040E1F79C
:1002300000C00000CF910895CF93C091610030E0DD
:1002400020E080E067E070E041E050E02C17D0F063
:1002500011DFC43011F0C13029F480916000819524
:100260008093600080916000C80FC0936100BFEF71
:1002700020E782E0B15020408040E1F700C000005C
:10028000CF910895FB01E21BF30BDA0102C0AA0F24
:10029000BB1FEA95E2F7FD01DA01022E01C0AA0FA9
:1002A0000A94EAF78A2B8E2B2F5F3F4FCFCF80E047
:1002B000E1DE2FEF80E792E0215080409040E1F7AF
:1002C00000C0000019D268E070E086D191E001C062
:1002D000990F8A95EAF7892FCDCE13DF803270F01F
:1002E000803470F0803670F087FF0EC0803A70F076
:1002F000803C70F0803E70F08FEFBCCE81E0FDCF8F
:1003000083E0FBCF87E0F9CF8FE0F7CF8FE1F5CF28
:100310008FE3F3CF8FE7F1CFCF93F3DEC82F809138
:1003200084004C2F481B550B9A0157FF03C0319591
:100330002195310922952695277081E090E001C032
:10034000880F2A95EAF7815095DEC09384005FE715
:1003500088E391E0515080409040E1F700C00000F8
:10036000CF910895EF92FF920F931F93CF93DF9356
:10037000CDB7DEB769970FB6F894DEBF0FBECDBF1D
:1003800089E1E7E6F0E0DE01119601900D928A9591
:10039000E1F78E010F5F1F4F7E012AE1E20EF11C93
:1003A000F80181918F0166DEFFEB24ED81E0F150D1
:1003B00020408040E1F700C000000E151F0581F7C6
:1003C00069960FB6F894DEBF0FBECDBFDF91CF9117
:1003D0001F910F91FF90EF9008950F931F93CF936C
:1003E000DF9381E047DE2FE789EA93E021508040E8
:1003F0009040E1F700C0000082E03CDE2FE789EA90
:1004000093E0215080409040E1F700C0000084E07C
:1004100031DE2FE789EA93E0215080409040E1F7F8
:1004200000C0000088E026DE2FE789EA93E0215033
:1004300080409040E1F700C000008FEF1BDE2FEFFF
:1004400082E597E0215080409040E1F700C0000035
:10045000D0E0C0E00FEF10E0C8010C2E02C095956F
:1004600087950A94E2F706DE8FE799EA23E0815048
:1004700090402040E1F700C000002196C830D1052F
:1004800059F780E0F7DD8FEF94E32CE08150904046
:100490002040E1F700C00000DF91CF911F910F9144
:1004A00008958FEFE7DD2FE788E391E0215080404A
:1004B0009040E1F700C0000080E0DCDD2FE788E33A
:1004C00091E0215080409040E1F700C00000089585
:1004D000EF92FF920F931F93CF93DF93D8E0C0E08A
:1004E00008E010E0EE24E394F12C06D180FF0AC06E
:1004F00003D1B80171D0970102C0220F331F8A9532
:10050000E2F7C22BD15089F78C2FB4DD3FEF80E7A3
:1005100092E0315080409040E1F700C00000DF9150
:10052000CF911F910F91FF90EF900895EF92FF925E
:100530000F931F93CF93DF93D8E0C0E008E010E063
:10054000EE24E394F12CD8D080FF0AC0D5D0B801B6
:1005500043D0970102C0220F331F8A95E2F7C22BC6
:10056000D15089F78C2F86DD8FE097E20197F1F764
:1005700000C00000DF91CF911F910F91FF90EF908D
:10058000089569DDE0918000EE3020F5F0E0EC5157
:10059000FC4F099480E06EDD2FE788E391E0215065
:1005A00080409040E1F700C00000ECCF24DEF4CFA3
:1005B00043DEF2CF7CDEF0CF90DEEECFADDEECCFCF
:1005C000D1DEEACF0ADFE8CF6CDFE6CF81DFE4CF10
:1005D000ADDFE2CFBCDDE0CF97FB072E16F4009431
:1005E00006D077FD08D00BD007FC05D03EF49095DF
:1005F00081959F4F0895709561957F4F0895AA1B2F
:10060000BB1B51E107C0AA1FBB1FA617B70710F0FD
:10061000A61BB70B881F991F5A95A9F7809590952F
:10062000BC01CD010895CF92DF92EF92FF92CF935C
:10063000DF93CDB7DEB72A970FB6F894DEBF0FBEB3
:10064000CDBF89879A87A985BA858D919D910D9097
:10065000BC91A02D89839A83AB83BC83892B8A2B81
:100660008B2B41F484E299EDABE5B7E089839A8363
:10067000AB83BC8369817A818B819C812DE133EFCF
:1006800041E050E061D02D833E834F8358876983DA
:100690007A838B839C8327EA31E440E050E03BD0AF
:1006A0006B017C012CEE34EF4FEF5FEF6D817E81AB
:1006B0008F81988530D0DC01CB018C0D9D1DAE1D46
:1006C000BF1DB7FF03C00197A109B048E985FA85AE
:1006D00080839183A283B3839F772A960FB6F89481
:1006E000DEBF0FBECDBFDF91CF91FF90EF90DF90C7
:1006F000CF90089598DF089583E690E094DF089501
:10070000B0E0A0E08093630090936400A093650044
:10071000B09366000895EE27FF27AA27BB2708C0DD
:10072000A20FB31FE41FF51F220F331F441F551FD5
:10073000969587957795679598F37040A9F70097F8
:1007400099F7BD01CF010895052E97FB16F400948B
:100750000FD057FD05D014D007FC02D046F408C0D6
:1007600050954095309521953F4F4F4F5F4F0895DD
:1007700090958095709561957F4F8F4F9F4F08950D
:10078000A1E21A2EAA1BBB1BFD010DC0AA1FBB1F95
:10079000EE1FFF1FA217B307E407F50720F0A21B07
:1007A000B30BE40BF50B661F771F881F991F1A9474
:1007B00069F760957095809590959B01AC01BD019E
:1007C000CF010895F894FFCFE5CE04CFEFCE02CF4E
:1007D00001CFEECEEFCEF0CEF1CEF2CEF3CEF4CE10
:0407E000F5CEF6CE8E
:1007E40001010101000000183C7EFF7E3C1800005E
:1007F400183C7EFF7E3C1800000000000000000052
:00000001FF
